:1000000012C0189518951895189518951895189563
:1000100018952EC018951895189518951895189537
:100020001895189518950000F89466246FBE8FEF08
:1000300098E08DBF9EBF03B7036003BF0FE8302E6B
:1000400002BF09B7016009BF4424552401B5086106
:10005000076001BD002700BD04E309B90AB10861CA
:100060000AB90EE800BD00B5006400BD7894C8CFA1
:10007000F8942FB6439409F0539432BEA8956624A1
:100080002FBE789418950000789400E805BF8895F5
:10009000CACF444953434C41494D45520A7468699B
:1000A0007320736F66747761726520697320707254
:1000B0006F766964656420224153204953222E0AD9
:1000C000436F7079726967687420C2A92032303238
:1000D000302C20416C7661726F20476F6D65732004
:1000E000536F6272616C2042617263656C6C6F73F6
:1000F0002C0A4C6963656E6365204372656174699F
:10010000766520436F6D6D6F6E732C663866393877
:100110003238342D353839652D343239302D383672
:1001200037632D3061633338323437323161632CB9
:100130000A4174747269627574696F6E2D4E6F6EC8
:10014000436F6D6D65726369616C20342E30204998
:100150006E7465726E6174696F6E616C20284343C2
:100160002042592D4E4320342E30290A04204F6B53
:100170000004203F3F000C20756E646566696E6563
:10018000643F000C20657863657074696F6E2100B0
:100190000A2061626F727465642E00000020000FF7
:1001A00000130004001500020019001100220006CF
:1001B000001B000D0024000B001E00080017000AA1
:1001C000000500180010002100010014000E001F9F
:1001D000000900160012001D0007001C000C00237F
:1001E0000003001A0000000004454E4453200000A4
:1001F000FD91ED91EE0FFF1F45915591F795E79514
:10020000742E752A21F0EE93FE93FA01F3CF099430
:10021000EFCFE601044E4F4F502000000C94080130
:100220001202034B455900005F9BFECF8A939A93BD
:100230008CB199270C9408012002044B45593F20AA
:1002400000005F9B78C06CC0380204454D495420C3
:1002500000005D9BFECF8CB9999189910C940801A7
:10026000480205454D49543F00005D9B64C058C09D
:1002700060020750554C4C55502100000C94080169
:1002800070020750554C4C444E2100000C9408015C
:10029000800203454321000079916991E199FECFE5
:1002A0009FBB8EBB6DBBF8942FB6E29AE19A2FBE2E
:1002B00078940C9408019002034543400000799122
:1002C0006991E199FECF9FBB8EBBE09A8DB39927D0
:1002D0000C940801B602035043400000FC018081E9
:1002E00099270C940801D402035043210000FC011B
:1002F0008083999189910C940801E602064D494C3E
:100300004C49532000008A939A93842D952D0C9488
:100310000801FA0204545255452000008A939A932A
:100320008FEF9FEF0C94080112030546414C534593
:1003300000008A939A93882799270C940801280330
:1003400002303D200000892B59F3A9F70C940801D5
:100350003E0302303C200000907811F761F30C94CA
:100360000801500302553C2000007991699188945E
:10037000681779070CF0DFCFD3CF0C940801620324
:1003800003554D2B0000799169918894860F971F32
:100390008A939A939927882708F483950C940801E7
:1003A0007E0301210000FC01999189918193919331
:1003B000999189910C940801A00301400000FC016F
:1003C000819191910C940801B803024040200000F3
:1003D000FC01EE0FFF1F85919591F795E7950C9421
:1003E0000801C803223E522000007D916D918E933A
:1003F0009E936E937E93999189910C940801E203E8
:1004000022523E2000008A939A937D916D919D9196
:100410008D916E937E930C940801FE03225240202E
:1004200000008A939A937D916D919D918D918E9309
:100430009E936E937E930C9408011A0403525321E9
:100440000000DC01999189910C9408013A04035051
:1004500053210000EC01999189910C9408014C04FE
:100460000352534000008A939A93CD010C940801E3
:100470005E040350534000008A939A93CE010C947B
:10048000080170040444524F502000009991899152
:100490000C94080182040344555000008A939A93F7
:1004A0000C940801940404535741502000007991A2
:1004B00069918A939A93CB010C940801A404044F88
:1004C000564552200000799169916A937A938A93F4
:1004D0009A93CB010C940801BC0403524F540000C2
:1004E00079916991599149916A937A938A939A93F0
:1004F000CA010C940801D804043F44555020000060
:10050000892B11F08A939A930C940801F604013C0C
:10051000000079916991861797070CF00CCF00CFF6
:100520000C9408010C05012B0000799169918894C5
:10053000860F971F0C9408012405012D0000799166
:1005400069918894681B790BCB010C9408013805DC
:10055000044E414E442000007991699186239723EF
:10056000609570950C9408014E0503414E440000BF
:1005700079916991862397230C9408016805024FAD
:100580005220000079916991862B972B0C940801D9
:100590007C0503584F52000079916991862797276F
:1005A0000C940801900506494E564552542000000F
:1005B000809590950C940801A405064E454741543A
:1005C00045200000819591950C940801B8050232F0
:1005D0002A2000008894880F991F0C940801CC05EC
:1005E00002322F2000008894869597950C9408017C
:1005F000DE05023E3C200000482F892F942F0C94EA
:100600000801F005064252414E4348200000FD918A
:10061000ED91EE0FFF1F65917591F795E7956E933C
:100620007E930C940801020607304252414E434823
:100630000000BC0199918991672B49F3FD91ED91DF
:100640003296EE93FE930C9408012606034C49540F
:1006500000008A939A93FD91ED91EE0FFF1F859113
:100660009591F795E795EE93FE930C9408014A0651
:1006700007414C49474E454400008E7F02960C943A
:1006800008016E060443454C4C2000008A939A935F
:1006900082E099270C940801820602432120000081
:1006A000FC01999189918083999189910C94080119
:1006B0009806024340200000FC01808199270C9499
:1006C0000801B006044A554D50200000FC01099471
:1006D000C206013000008A939A93882799270C94C8
:1006E0000801D006013100008A939A93992781E08E
:1006F0000C940801E206013200008A939A9399272C
:1007000082E00C940801F40602452120C404C404CC
:100710009602E6062805E803F60504049602EE01B3
:100720000607024540209A04BC02AC04BC025006F5
:10073000FF006E05F605AC045006FF006E0582054D
:10074000EE012007034E4950AC048A04EE01420733
:10075000045357495020E803AC040404EE014E074B
:1007600003524F545607AC04EE015E07042D524F5E
:100770005420AC045607EE016A07045455434B203D
:10078000AC04C404EE01780704464C495020AC0484
:100790005607AC04EE018607013D3C054403EE011B
:1007A0009607023C3E209A07AE05EE01A007013EE7
:1007B000AC041005EE01AC0702303E20D406100553
:1007C000EE01B60702303C20D406AC041005EE0161
:1007D000C2070543454C4C53D205EE01D0070543F3
:1007E000454C4C2B8A062805EE01DC070543454C99
:1007F0004C2D8A063C05EE01EA0702312B20E60665
:100800002805EE01F80702312D20E6063C05EE0131
:10081000040802322B20F8062805EE0110080232E7
:100820002D20F8063C05EE011C08022B21209A041D
:10083000E803BC0328050404A403EE0128080543CB
:100840004841522BFE07EE013C0805434841522D1A
:100850000A08EE014808054348415253EE01540886
:100860000354494250060001EE010C9408015E0851
:100870000553544154455006C801EE016E08044228
:100880004153452050068408EE017C080343535031
:100890005006D601EE018A08024550205006C201DA
:1008A000EE019608024450205006BE01EE01A20857
:1008B000024850205006C401EE01AE0802555020F7
:1008C0005006C001EE01BA08044255464620C00851
:1008D000AC043C05EE01C6080350414450064800F4
:1008E000CE08EE01D608054445505448760450061B
:1008F00090013C05EE01E40806524445505448205E
:1009000064045006B4013C05EE01F6080743555255
:1009100052454E545006D801EE010A0907434F4E86
:10092000544558545006DA01EE011A090B44454665
:10093000494E4954494F4E532409BC031409A4039A
:10094000EE012A09064C4154455354205006BC017F
:10095000EE014209055548455245B408BC03EE0175
:100960005209044845524520A808BC03EE0160091D
:1009700005414C4C4F549A04B408BC032805B408F4
:10098000A403A808BC032805A808A403EE016E0967
:1009900005414C49474EB408BC037806B408A4038B
:1009A000A808BC037806A808A403EE018E094243F8
:1009B0002C205A099E06E6067609EE01AC09412C68
:1009C0005A09A4038A067609EE01BC09423C2C2090
:1009D000C4043C055A092805A403EE01CA090544CC
:1009E0004F56415204049A041608E803EE01DC094C
:1009F00005444F434F4EE409CE03BC03EE01EE091C
:100A0000074C49544552414C50065006C009C00994
:100A1000EE01FE09035B275D50065006C009EE019A
:100A2000120A44434F4D502004049A04E407E8039B
:100A3000CE03C009EE01200A444558495420280A33
:100A4000EE01EE01360A4745584543555445E80343
:100A5000EE01440A045441494C2020048A063C0516
:100A6000E803EE01520A664D41524B544F2068098B
:100A70009A04C009EE01640A66544F4D41524B205E
:100A80006809AC04D009EE01760A65424547494E33
:100A90006809EE01880A65414741494E280A0C065B
:100AA000C009EE01940A65554E54494C280A300697
:100AB000C009EE01A40A66554E4C45535320440329
:100AC000AC0AEE01B40A62494620280A30066E0AD2
:100AD000EE01C40A62474F20280A0C066E0AEE0196
:100AE000D20A645448454E20F40AEE01E00A6545F6
:100AF0004E444946800AEE01EC0A64454C534520B9
:100B0000D80AAC04800AEE01F80A655748494C45FA
:100B1000CA0AAC04EE01080B665245504541542008
:100B20009C0A800AEE01160B654148454144D80AEB
:100B3000EE01260B634146548A04D80A6809AC04C6
:100B4000EE01320B64484F4F4B20900AE803EE0150
:100B5000420B644241434B2004049C0AEE01500BBB
:100B600043464F52280AE803900AEE015E0B0454F4
:100B700058454E2004040A089A043006800BE80306
:100B8000EE016C0B444E45585420280A740BBE0AE3
:100B9000EE01820B444341534520D406EE01920BF3
:100BA000424F4620FE07280AC404280A9A07280A4A
:100BB000CA0A280A8A04EE019E0B45454E444F4658
:100BC000280A000BEE01B80B4744454641554C54EA
:100BD000280A1A03280ACA0A280A8A04EE01C60B40
:100BE00047454E4443415345280A8A04640B280A6A
:100BF000E80A8A0BEE01DE0B04444F4954205006EC
:100C0000008028059A04E8033C05E803EE01F60B92
:100C1000062B4C4F4F504920040428050404C404FB
:100C2000C40410053006300C040404041A03EE0159
:100C30008A048A043003EE010E0C054C4F4F5049D4
:100C4000E606180CEE01380C42444F20280AFE0B31
:100C5000900AEE01460C014904049A04E803EE01EF
:100C6000540C014A0404040404049A04E803E8034D
:100C7000E803EE01600C454C45415645AC0C3E0A7C
:100C8000EE01740C444C4F4F5020280A400CAC0A23
:100C9000EE01820C452B4C4F4F50280A180CAC0A21
:100CA000EE01920C46554E4C4F4F50200404040464
:100CB0008A048A04EE01A20C0243522050060D0061
:100CC0005002EE01B60C024C462050060A005002BB
:100CD000EE01C40C02424C20500620005002EE01EE
:100CE000D20C04504143452050060B005002EE0147
:100CF000E00C0442454C4C20500607005002EE0127
:100D0000F00C055350414345500620005002EE01BF
:100D1000000D0653504143455320FE043006280D74
:100D2000080D0A080C061A0DEE01100D05434F556B
:100D30004E549A04BC03E803FE070404EE012A0D96
:100D40000454595045209A0430065E0D0A08E80301
:100D50009A04BC035002FE0704040C06460D8A04E4
:100D60008A04EE013E0D03554D2DC2058403EE01AC
:100D7000640D02552D20C008BC038A063C059A0468
:100D8000C008A403EE01700D02552B20C008BC035F
:100D90008A0628059A04C008A403EE01860D0255B0
:100DA0004020C008BC03EE019C0D02552120C00864
:100DB000A403EE01A80D023E5520C008BC03A40305
:100DC000EE01B40D02553E20C008BC03BC03EE0189
:100DD000C20D05434F4C4430500600005006B4018C
:100DE000A403500600005006B601A40350060000FC
:100DF0005006B801A403500600005006BA01A4032F
:100E0000500652225006BC01A40350066022500630
:100E1000BE01A403500610005006C201A4035006F0
:100E2000EC015006C401A4035006FF085006C0019F
:100E3000A403EE01D00D0645454C4F414420D40695
:100E40009A0426075006B401A403F80628059A045C
:100E500026075006B601A403F80628059A042607BB
:100E60005006B801A403F80628059A042607500680
:100E7000BA01A403F80628059A0426075006BC0107
:100E8000A403F80628059A0426075006BE01A40309
:100E9000F80628059A0426075006C201A403F8069E
:100EA00028059A0426075006C001A403EE01340E5B
:100EB0000645455341564520D4069A045006B401D0
:100EC000BC03AC040C07F80628059A045006B601CA
:100ED000BC03AC040C07F80628059A045006B801B8
:100EE000BC03AC040C07F80628059A045006BA01A6
:100EF000BC03AC040C07F80628059A045006BC0194
:100F0000BC03AC040C07F80628059A045006BE0181
:100F1000BC03AC040C07F80628059A045006C2016D
:100F2000BC03AC040C07F80628059A045006C0015F
:100F3000BC03AC040C07EE01AE0E04434F4C44203E
:100F40003E0E5006B60144033006500FD80DB80EC1
:100F50005006B401400450069001520450060000AF
:100F60007608A403500610008408A40350068C0FD2
:100F700004045006B6019A04BC03E6062805AC0436
:100F8000A403EE01380F045741524D20B801BC03B1
:100F90004E0AD621EE01840F03425945B80EBA011C
:100FA000BC034E0A2600EE01960F013450060400E1
:100FB000EE01A80F02342B20500604002805EE0194
:100FC000B20F02342D20500604003C05EE01C00F84
:100FD00002322120AC04C404A403E407A403EE01FC
:100FE000CE0F023240209A04E407BC03AC04BC03D9
:100FF000EE01E00F03323E52AC0404040404EE019F
:10100000F20F0332523E04040404AC04EE0100105B
:101010000332524004040404C404C404E803E80393
:10102000AC04EE010E10053244524F508A048A047B
:10103000EE012410043244555020C404C404EE01CF
:1010400032100532535741506407E8036407E80340
:10105000EE01401002442B20E803AC04E8038403B3
:101060000404040428052805EE01521002442D2032
:10107000E803AC04E8036A0D040404043C053C05E1
:10108000EE016A1007444E4547415445AE05E8035A
:10109000AE05E606840304042805EE01821004442C
:1010A000414253209A04C8073006AE108C10EE015E
:1010B0009C100448415348200000662465E075E117
:1010C000F991E991981779F07190670D761D660F87
:1010D000771F660F771F660F771F660F771F660FE4
:1010E000771F0197EFCFCB010C940801B010065287
:1010F000414E444F4D2000004091C6015091C60121
:1011000045274295540FCA0108C0EC100452414EC5
:1011100044200000AC01999189914093C6015093FD
:10112000C7010C9408010A11034142539A04C807ED
:1011300030063611C205EE012611034D41583A1012
:10114000100530064811AC048A04EE013811034D35
:10115000494EAC043E11EE014C1106574954484922
:101160004E20C4043C05E8033C0504046803EE017A
:10117000581106554D504153532000009A048403E2
:10118000E803E8039A04840304042805EE017011BF
:1011900006554D2F4D4F44200000C404C404760D65
:1011A0003006DC11C20550060F00640BE8037A110B
:1011B0009A0404042004AC04E803840304048205B4
:1011C0003006D011E8038A04FE0704040C06D2118D
:1011D0008A0404048A0B8A04AC04EE018A048A049B
:1011E0008A041A039A04EE018E11054D2F4D4F44C7
:1011F00000009A04C8079A04E80330060612C205E4
:10120000E8038C100404E8039A04C807300614129B
:101210002004280504049811040430062412AC04A8
:10122000C205AC04EE01E811042F4D4F442000002C
:10123000C404C807AC04F011EE012612034D4F445C
:1012400000002E128A04EE013A12012F00002E1225
:10125000AC048A04EE01481203554D2A0000D4065E
:10126000AC0450060F00640B7A11040430067A12A5
:10127000E803C4048403040428058A0B64078A0471
:10128000EE015612012A00005C128A04EE0182125D
:10129000024D2A200000C404C4049605C807E803D0
:1012A0002C11AC042C115C1204043006B0128C100A
:1012B000EE018E12052A2F4D4F440000E8039412D0
:1012C000E803F011EE01B212022A2F200000BA1238
:1012D000AC048A04EE01C6120C286C6F61645F6670
:1012E0006C61736829200000F991E991CE93DE9337
:1012F000EC01E695FF1F4091800055915D934A9562
:10130000E1F7DD91CD91999189910C940801D61264
:101310000C28736176655F666C6173682920000034
:10132000FC0179916991CE93DE93EB01EE93FE93EC
:1013300083E017D0EE27FF2770E80D901D9081E025
:1013400010D032967A957A95C1F7FD91ED9185E0AE
:1013500008D081E106D0DD91CD91999189910C94CD
:101360000801F8942FB60E94E93F2FBE789407B683
:1013700000FCFDCF08950E1305444947495450061B
:1013800030003C059A04D40610053006B8139A04C0
:101390005006090010053006BE139A0450061100CD
:1013A00010053006B813500607003C059A0484085F
:1013B0003C0510053006BE138A043003EE018A0492
:1013C0001A03EE017613023C2320DC085006DC01F0
:1013D000A403EE01C41304484F4C4420DC01BC03B9
:1013E00050089A04DC01A4039E06EE01D4130123E5
:1013F000D4068408BC039811E8038408BC03981140
:10140000AC047E13DC130404EE01EC13022353201E
:10141000F0133A108205440330061014EE010A144A
:10142000045349474E20C807300632142C203C058F
:10143000DC13EE011E1402233E202C10DC01BC0341
:10144000DC08C4043C05EE0134140428552E292080
:10145000D406CA1310143A14EE01481402552E2073
:101460005014460D080DEE015A1403552E52E80390
:1014700050140404C4043C051A0DEE01681403283A
:101480002E299A042C110000CA1310146407261484
:101490003A14EE017C14012E8214460D080DEE0163
:1014A0009414013FBC039814EE01A014022E5220A4
:1014B000E80382140404C4043C051A0D460DEE0131
:1014C000AA14052855442E29CA1310143A14EE0103
:1014D000C0140355442EC814460D080DEE01D01457
:1014E0000455442E5220E803C8140404C4043C05E7
:1014F0001A0D460DEE01DE140428442E2920800723
:10150000A410CA131014640726143A14EE01F6143A
:1015100002442E20FE14460D080DEE010E15034464
:101520002E52E803FE146407C4041A0D460DEE01A2
:101530001C150628736B6970292000009927F99102
:10154000E9916081961721F0861721F03196F9CF45
:10155000EE27FF27CF010C9408013015062873638E
:10156000616E292000009927F991E9916081961711
:1015700021F0861721F43196F9CFEE27FF27CF010E
:101580000C9408015A15062873616D652920000026
:10159000992779916991F991E991CE93DE93EB01C5
:1015A000882B39F08A95419159914517C9F38827BD
:1015B00002C08FEF9FEF0C94080184150628636F1B
:1015C000707929200000992779916991F991E99121
:1015D000CE93DE93EB01881721F0619169938A9590
:1015E000FACFDD91CD91CF010C940801BA150828EE
:1015F000726566696C6C29200000F991E9918A9501
:101600008A9540E24193992755278917F1F05F9B0E
:10161000FECF4CB14038DCF75D9BFECF4CB94E316C
:1016200064F44D3091F04A3081F0483029F4991734
:1016300071F39A953197EBCF40E2403211F44517A0
:1016400031F393954193542FE0CF40E24193892F9A
:1016500099270C940801EC150628776F72642920ED
:101660000000F991E99199270AC056160728706180
:10167000727365290000F991E991992707C060818B
:101680009617B1F0861711F43196F9CFAF0160814A
:10169000961771F0861711F03196F9CFE41BF50B10
:1016A0004A935A93CF0102C0882799270C940801C6
:1016B0006A160728646967697429000080538030BE
:1016C00064F089303CF0813144F087509091840877
:1016D00098171CF49FEF8FEF02C0992788270C946E
:1016E0000801B01608286E756D6265722920000029
:1016F000992798171CF08A939A9350C0F991E99111
:10170000BC018827992770908408671709F449C09D
:1017100041917723C9F4443219F440E1742EF5CF96
:10172000433219F44AE0742EF0CF453219F442E006
:10173000742EEBCF4D3219F451E07A95E6CF4B324F
:1017400019F450E07A95E1CF403059F1403249F137
:1017500041360CF040524053403004F14A300CF016
:1017600047504715DCF4840F961D0C014715000CFB
:10177000111C423081F0C001000C111C000C111C26
:101780004A3019F4080E191E06C0000C111C403115
:1017900011F008F403C0C0017395B0CF442755275A
:1017A0000AC0503021F0809590950196B8F38A9345
:1017B0009A934FEF5FEFCA010C940801E2160628D6
:1017C00066696E6429200000FC01999189917991E4
:1017D0006991CE93DE936E937E93EB01982FCE9317
:1017E000DE93EE93FE93FD91ED91EE0FFF1F459179
:1017F0005591F795E795451751F14E935E93EE0F8E
:10180000FF1F65917591F795E795562F6F706817D3
:1018100051F74991471739F7892F8A9579F0EE0FDB
:10182000FF1F65917591F795E79549914617D9F690
:101830008A9521F049914717B1F6EFCF507421F402
:1018400088279927839505C08FEF9FEF02C08827CF
:1018500088275D914D915D914D915D914D918030C5
:1018600009F0AF01DD91CD914A935A930C94080190
:10187000BC17044E554C4C200000636F796F7465A3
:1018800000EE01007018063F4552524F5220AC0442
:1018900030069A188A040C06A21870219814BC0C01
:1018A000D621EE018418053F434F4D507608BC0306
:1018B000440350060B008E18EE01A418053F45584E
:1018C00045437608BC030A08440350060C008E18F2
:1018D000EE01BA18043F4353502076049008BC032D
:1018E0003C0550060E008E18EE01D218063F5354E8
:1018F00041434B2076049001B007500601008E183A
:10190000760490013C05500624003C055006070073
:101910008E18EE01EA18053F504149523C05500629
:101920000D008E18EE01141964484F4F4B20AC186F
:101930004A0B50060100EE012619644241434B2038
:10194000AC18500601001C19580BEE0138196249F9
:101950004620AC18CA0A50060200EE014C19644534
:101960004C534520AC18500602001C1950060200CA
:10197000000BEE015C1965454E444946AC18500613
:1019800002001C19F40AEE017419645448454E20F3
:10199000AC18500602001C19F40AEE0188196541C2
:1019A00048454144AC18D80A50060200EE019C1983
:1019B00063414654AC18500602001C19380B5006FF
:1019C0000200EE01AE1965424547494EAC18900A37
:1019D00050060300EE01C41965414741494EAC1859
:1019E000500603001C199C0AEE01D61965554E5489
:1019F000494CAC18500603001C19AC0AEE01EA1958
:101A0000655748494C45AC18500603001C19100B8B
:101A100050060400EE01FE1966524550454154201F
:101A2000AC18500604001C19200BEE01161A634670
:101A30004F52AC18640B50060500EE012C1A644E90
:101A400045585420AC18500605001C198A0BEE01AD
:101A50003C1A644341534520AC189A0B50060600CB
:101A6000EE01501A67454E4443415345AC185006A9
:101A700006001C19E80BEE01621A624F4620AC18F2
:101A800050060600A40B1C190700EE01781A6545E4
:101A90004E444F46AC18500607001C19C00B5006A8
:101AA0000600EE018C1A62444F20AC184C0C500614
:101AB0000800EE01A41A644C4F4F5020AC18500699
:101AC00008001C198A0CEE01B41A652B4C4F4F50BC
:101AD000AC18500608001C199A0CEE01C81A654C87
:101AE00045415645AC18500608001C197C0C5006A0
:101AF0000800EE01DC1A66554E4C4F4F5020AC18D2
:101B0000500608001C19AC0C50060800EE01F41A2F
:101B10000556414C554552208A04080AEE010E1B19
:101B200042544F201820E407A403EE011E1B054475
:101B30004546455252205006522250060C06C00916
:101B4000C009EE012C1B424953201820E407AC04C5
:101B5000A403EE01441B0653534D4F564520FE048B
:101B60003006F01C9A04E8039A04C4042805E8032C
:101B7000280504040404FE043006F01C0A08E803E7
:101B8000C404BC039A04500627009A073006E01CE0
:101B90009A04500661009A0730060C008A04500629
:101BA00007000C06E01C9A04500662009A073006F3
:101BB0000E008A04500608000C06E01C9A04500629
:101BC00065009A07300610008A0450061B000C06B8
:101BD000E01C9A04500666009A07300612008A0438
:101BE00050060C000C06E01C9A0450066C009A0784
:101BF000300614008A0450060A000C06E01C9A0401
:101C000050066E009A07300616008A0450060A0035
:101C10000C06E01C9A04500671009A073006180062
:101C20008A04500622000C06E01C9A04500672003A
:101C30009A0730061A008A0450060D000C06E01CB4
:101C40009A04500674009A0730061C008A04500655
:101C500009000C06E01C9A04500676009A0730062C
:101C60001E008A0450060B000C06E01C9A04500665
:101C70007A009A07300620008A04500600000C06FD
:101C8000E01C9A04500622009A07300622008A04BB
:101C9000500622000C06E01C9A0450065C009A07CD
:101CA000300624008A0450065C000C06E01C9A04EE
:101CB000500678009A07300626008A0450060A006B
:101CC0000C06E01C9A0450066D009A0730062800A6
:101CD0008A0450060A000C06E01C8A045006200004
:101CE000C404A4030A08AC040A08AC040C06761B5E
:101CF0008A048A04EE01541B044D4F564520FE040D
:101D00003006341D9A04E8039A04C4042805E80345
:101D1000280504040404FE043006341D0A08E80300
:101D2000C404BC03C404A4030A08AC040A08AC0439
:101D30000C06161D8A048A04EE01F61C05434D4F5D
:101D40005645FE043006521DE405E6062805FE1C35
:101D5000EE018A048A04EE013A1D0446494C4C20E7
:101D6000AC04FE043006841DE803AC040404FE0445
:101D70003006841D0A08E803C404C4049E06FE0756
:101D80000C066C1D8A048A04EE01581D015DE606EE
:101D90007608A403EE018A1D415BD4067608A403ED
:101DA000EE01961D06544F47474C4520C404BC0322
:101DB0009605AC04A403EE01A21D043E4E4641204C
:101DC0008A062805EE01B81D043E43464120C01D89
:101DD0009A04BC030F006E0528059609EE01C61D86
:101DE0000648494444454E204C09C01D1000AC1D16
:101DF000EE01DE1D09494D4D4544494154454C090C
:101E0000C01D4000AC1DEE01F21D0C434F4D50496A
:101E10004C455F4F4E4C59204C09C01D2000AC1D55
:101E2000EE01081E0748414E444C45525006D4016D
:101E3000EE01221E0543415443487604E8032C1E5C
:101E4000BC03E80364042C1EA4034E0A04042C1EE5
:101E5000A40304048A04D406EE01321E0554485239
:101E60004F57FE043006801E2C1EBC0340040404A1
:101E70002C1EA4030404AC04E80352048A040404E2
:101E8000EE015A1E0541424F52545006FFFF621E9A
:101E9000EE01821E06414343455054205222EE017A
:101EA000921E054F564552545222EE01A01E413A51
:101EB00052208E1DEE01AC1E013B3E0A9A1DA81E4B
:101EC000EE01B61E06534F55524345205006000101
:101ED00050064800C404C40428055006D406AC04C7
:101EE000A403E6063C05EE01C21E07534F555243BC
:101EF000452BCC1E8A04CC012805EE01E81E0652B3
:101F00004546494C4C20CC1EF815D406CC01A40300
:101F1000EE01FC1E055041525345F21EAC047416EE
:101F2000FE0430062E1F9A04CC012E08EE01061F77
:101F30000C061A1F121F415C50064800CC01A40376
:101F4000EE01341F4128500629001A1F8A048A0412
:101F5000EE01421F022E2820500629001A1FEE0112
:101F6000521F03535C2204049A04320D460D9A0456
:101F7000BC03E606280528058A0628057806E80336
:101F8000EE01601F0253222004049A04320D460D14
:101F90009A04BC03E606280528058A062805780663
:101FA000E803EE01821F422E2220500622001A1F53
:101FB0007608BC033006D01F280A881F9A04B2098D
:101FC0006809C40476099609AC04421D0C06D21FA8
:101FD000460DEE01A41F0A50415253452D4E414D6E
:101FE0004520F21EAC046016FE043006F61F9A046B
:101FF000CC012E08EE01061F0C06E21FD41F094675
:10200000494E442D4E414D454C09BC03C617EE01C7
:10201000FC1F0446494E4420E21F082030068A1E59
:102020008A04EE011020044348415220E21F8A0432
:10203000BC03EE012420073A4E4F4E414D45D406D5
:10204000D40652208E1DEE013420064352454154E1
:102050004520E21F5006EC019A044C09BC03AC0475
:10206000A403E407C404C404A403FE07AC049A0454
:10207000E803C41504049A04E6066E05440330061A
:102080008E209A04D80CAC04A403E6062805EE01C1
:10209000482004444F45532050060C06C0096809E7
:1020A000C009EE01902045444F45533E50060C06B2
:1020B000C0096809C009EE01A42008434F4E5354DB
:1020C000414E542052209C08BC039A04E8030C079C
:1020D00004049A048A0628059C08A403C009AC20BD
:1020E000EE01B820085641524941424C4520522049
:1020F000C008BC039A04E803A40304049A048A06F3
:102100003C05C008A403C009AC20EE01E220012771
:1021100008209A04440330061C21AC048A04EE0112
:102120000C2148504F5354504F4E45201021C009A8
:10213000EE01202147434F4D50494C45E409BC0373
:10214000C009EE013221054E554D424EC404C4046F
:10215000EE1630066421E8038A048A0404041A0394
:102160000C0666213003EE014421054E4F4E454ECC
:10217000BC0C460D5006720150060400460DEE01DF
:102180006821044556414C20E21F08203006AC214E
:102190000A0844033006A6217608BC033006A621AF
:1021A000C0090C0688214E0A0C0688214C213006F5
:1021B000C6217608BC033006882150065006C009A7
:1021C000C0090C06882170210C068821EE018021AF
:1021D0000451554954209A1DB4014004061F88211A
:1021E0003A1E9A04500600009A0730060C22760820
:1021F000BC0344033006422250066D015006040021
:10220000460D0C064222BC0C0C06DE219A04500638
:10221000FFFF9A073006262250069101500608005B
:10222000460D0C0642229A045006FEFF9A0730061D
:1022300042225006840150060C00460D98140C06EC
:102240004222BC0C0C06DE21EE01CE2105554E4487
:1022500045465006770150060C00460DBC0CEE01B9
:00000001FF
