:1000000012C0189518951895189518951895189563
:1000100018952EC018951895189518951895189537
:100020001895189518950000F89466246FBE8FEF08
:1000300098E08DBF9EBF03B7036003BF0FE8302E6B
:1000400002BF09B7016009BF4424552401B5086106
:10005000076001BD002700BD04E309B90AB10861CA
:100060000AB90EE800BD00B5006400BD7894C8CFA1
:10007000F8942FB6439409F0539432BEA8956624A1
:100080002FBE789418950000789400E805BF8895F5
:10009000CACF444953434C41494D45520A7468699B
:1000A0007320736F66747761726520697320707254
:1000B0006F766964656420224153204953222E0AD9
:1000C000436F7079726967687420C2A92032303238
:1000D000302C20416C7661726F20476F6D65732004
:1000E000536F6272616C2042617263656C6C6F73F6
:1000F0002C0A4C6963656E6365204372656174699F
:10010000766520436F6D6D6F6E732C663866393877
:100110003238342D353839652D343239302D383672
:1001200037632D3061633338323437323161632CB9
:100130000A4174747269627574696F6E2D4E6F6EC8
:10014000436F6D6D65726369616C20342E30204998
:100150006E7465726E6174696F6E616C20284343C2
:100160002042592D4E4320342E30290A04204F6B53
:100170000004203F3F000C20756E646566696E6563
:10018000643F000C20657863657074696F6E2100B0
:100190000A2061626F727465642E00000020000FF7
:1001A00000130004001500020019001100220006CF
:1001B000001B000D0024000B001E00080017000AA1
:1001C000000500180010002100010014000E001F9F
:1001D000000900160012001D0007001C000C00237F
:1001E0000003001A0000000004454E4453200000A4
:1001F000FD91ED91EE0FFF1F45915591F795E79514
:10020000742E752A21F0EE93FE93FA01F3CF099430
:10021000EFCFE601034B455900005F9BFECF8A9369
:100220009A938CB199270C9408011202044B4559FA
:100230003F2000005F9B68C05CC02A0204454D4916
:10024000542000005D9BFECF8CB9999189910C944C
:1002500008013A0205454D49543F00005D9B54C0DA
:1002600048C0520203454321000079916991E19908
:10027000FECF9FBB8EBB6DBBF8942FB6E29AE19A7E
:100280002FBE78940C94080162020345434000009D
:1002900079916991E199FECF9FBB8EBBE09A8DB3B6
:1002A00099270C9408018802035043400000FC0188
:1002B000808199270C940801A60203504321000075
:1002C000FC018083999189910C940801B802064D34
:1002D000494C4C49532000008A939A93842D952DC4
:1002E0000C940801CC0204545255452000008A9316
:1002F0009A938FEF9FEF0C940801E4020546414C5E
:10030000534500008A939A93882799270C940801F3
:10031000FA0202303D200000892B59F3A9F70C9412
:100320000801100302303C200000907811F761F3BF
:100330000C940801220302553C2000007991699138
:100340008894681779070CF0DFCFD3CF0C9408019D
:10035000340303554D2B0000799169918894860FE1
:10036000971F8A939A939927882708F483950C946A
:100370000801500301210000FC01999189918193AA
:100380009193999189910C940801720301400000A6
:10039000FC01819191910C9408018A030240402054
:1003A0000000FC01EE0FFF1F85919591F795E795F1
:1003B0000C9408019A03223E522000007D916D9119
:1003C0008E939E936E937E93999189910C940801DC
:1003D000B40322523E2000008A939A937D916D913E
:1003E0009D918D916E937E930C940801D0032252BF
:1003F000402000008A939A937D916D919D918D91FB
:100400008E939E936E937E930C940801EC0303529B
:1004100053210000DC01999189910C9408010C048E
:10042000035053210000EC01999189910C9408012B
:100430001E040352534000008A939A93CD010C94FA
:10044000080130040350534000008A939A93CE0170
:100450000C94080142040444524F5020000099912A
:1004600089910C94080154040344555000008A9368
:100470009A930C94080166040453574150200000DD
:10048000799169918A939A93CB010C94080176042F
:10049000044F564552200000799169916A937A93EE
:1004A0008A939A93CB010C9408018E04043F44551F
:1004B00050200000892B11F08A939A930C94080124
:1004C000AA04013C000079916991861797070CF006
:1004D0001BCF0FCF0C940801C004012B00007991B1
:1004E00069918894860F971F0C940801D804012DF8
:1004F0000000799169918894681B790BCB010C9469
:100500000801EC04044E414E4420000079916991A9
:1005100086239723609570950C940801020503418A
:100520004E44000079916991862397230C94080129
:100530001C05024F5220000079916991862B972B60
:100540000C940801300503584F52000079916991CD
:10055000862797270C940801440506494E564552B4
:1005600054200000809590950C9408015805064E83
:100570004547415445200000819591950C94080110
:100580006C0502322A2000008894880F991F0C9471
:100590000801800502322F200000889486959795E7
:1005A0000C9408019205023E3C200000482F892F40
:1005B000942F0C940801A405064252414E43482052
:1005C0000000FD91ED91EE0FFF1F65917591F7957C
:1005D000E7956E937E930C940801B605073042525E
:1005E000414E43480000BC0199918991672B49F322
:1005F000FD91ED913296EE93FE930C940801DA058D
:10060000034C495400008A939A93FD91ED91EE0FAB
:10061000FF1F85919591F795E795EE93FE930C94C6
:100620000801FE0507414C49474E4544000001962C
:100630008F7F0C94080122060443454C4C20000097
:100640008A939A9382E099270C9408013606024314
:1006500021200000FC0199918991808399918991D1
:100660000C9408014C06024340200000FC018081EC
:1006700099270C9408016406013000008A939A932C
:10068000882799270C9408017606013100008A9387
:100690009A93992781E00C940801880601320000A2
:1006A0008A939A93992782E00C9408019A0602454E
:1006B00021209604960468028C06DC04BA03AA057D
:1006C000D6036802EE01AC06024540206C048E029F
:1006D0007E048E020406FF002205AA057E0404069D
:1006E000FF0022053605EE01C606034E49507E0482
:1006F0005C04EE01E806045357495020BA037E0417
:10070000D603EE01F40603524F54FC067E04EE01BC
:100710000407042D524F54207E04FC06EE011007FE
:10072000045455434B207E049604EE011E070446F4
:100730004C4950207E04FC067E04EE012C07013D4E
:10074000F0041603EE013C07023C3E204007620520
:10075000EE014607013E7E04C404EE01520702305A
:100760003E207A06C404EE015C0702303C207A0683
:100770007E04C404EE0168070543454C4C538605CE
:10078000EE0176070543454C4C2B3E06DC04EE019A
:1007900082070543454C4C2D3E06F004EE019007C0
:1007A00002312B208C06DC04EE019E0702312D2045
:1007B0008C06F004EE01AA0702322B209E06DC0410
:1007C000EE01B60702322D209E06F004EE01C207AC
:1007D000022B21206C04BA038E03DC04D6037603BB
:1007E000EE01CE0705434841522BA407EE01E20774
:1007F00005434841522DB007EE01EE07054348413D
:100800005253EE01FA070354494204060001EE0177
:100810000C94080104080553544154450406C801CA
:10082000EE01140804424153452004062A08EE0153
:100830002208034353500406D601EE013008024556
:1008400050200406C201EE013C0802445020040678
:10085000BE01EE014808024850200406C401EE0122
:100860005408025550200406C001EE0160080442FD
:100870005546462066087E04F004EE016C080350DD
:100880004144040648007408EE017C0805444550C4
:100890005448480404069001F004EE018A08065208
:1008A00044455054482036040406B401F004EE01D7
:1008B0009C080743555252454E540406D801EE0198
:1008C000B00807434F4E544558540406DA01EE0170
:1008D000C0080B444546494E4954494F4E53CA0837
:1008E0008E03BA087603EE01D008064C41544553F6
:1008F00054200406BC01EE01E80805554845524560
:100900005A088E03EE01F8080448455245204E0867
:100910008E03EE01060905414C4C4F546C045A08F5
:100920008E03DC045A0876034E088E03DC044E085E
:100930007603EE01140905414C49474E5A088E03CF
:100940002C065A0876034E088E032C064E087603B2
:10095000EE01340942432C20000952068C061C0982
:10096000EE015209412C000976033E061C09EE01F6
:100970006209423C2C209604F0040009DC04760352
:10098000EE01700905444F564152D6036C04BC0772
:10099000BA03EE01820905444F434F4E8A09A00372
:1009A0008E03EE019409074C49544552414C04060C
:1009B000040666096609EE01A409035B275D0406C7
:1009C00004066609EE01B80944434F4D5020D60392
:1009D0006C048A07BA03A0036609EE01C609444500
:1009E00058495420CE09EE01EE01DC09474558452F
:1009F00043555445BA03EE01EA09045441494C20D9
:100A0000F2033E06F004BA03EE01F809664D4152C6
:100A10004B544F200E096C046609EE010A0A665415
:100A20004F4D41524B200E097E047609EE011C0AFF
:100A300065424547494E0E09EE012E0A6541474180
:100A4000494ECE09C0056609EE013A0A65554E5475
:100A5000494CCE09E4056609EE014A0A66554E4C3A
:100A6000455353201603520AEE015A0A62494620A2
:100A7000CE09E405140AEE016A0A62474F20CE0946
:100A8000C005140AEE01780A645448454E209A0ABB
:100A9000EE01860A65454E444946260AEE01920A51
:100AA00064454C5345207E0A7E04260AEE019E0AC8
:100AB000655748494C45700A7E04EE01AE0A6652FD
:100AC000455045415420420A260AEE01BC0A6541C0
:100AD000484541447E0AEE01CC0A634146545C0419
:100AE0007E0A0E097E04EE01D80A64484F4F4B205F
:100AF000360ABA03EE01E80A644241434B20D603AA
:100B0000420AEE01F60A43464F52CE09BA03360AAC
:100B1000EE01040B045458454E20D603B0076C0474
:100B2000E405260BBA03EE01120B444E455854203F
:100B3000CE091A0B640AEE01280B444341534520A9
:100B40007A06EE01380B424F4620A407CE099604E0
:100B5000CE094007CE09700ACE095C04EE01440BB1
:100B600045454E444F46CE09A60AEE015E0B47446A
:100B7000454641554C54CE09EC02CE09700ACE09C7
:100B80005C04EE016C0B47454E4443415345CE098E
:100B90005C040A0BCE098E0A300BEE01840B044470
:100BA0004F495420BA03BA03EE019C0B062B4C4F5D
:100BB0004F5049206C04D603DC04D6030A07BA035D
:100BC00096049604F004D6036E07E405D80BC4041B
:100BD000E405E60BC005DE0B5607E405E60BBA0399
:100BE000BA030203EE01EC02EE01AA0B054C4F4FD3
:100BF00050498C06B40BEE01EA0B42444F20CE095B
:100C0000A40B360AEE01F80B0149D6036C04BA03B3
:100C1000EE01060C014AD603D603D6036C04BA03D0
:100C2000BA03BA03EE01120C454C45415645680C17
:100C3000CE09C0050E096C046609E409EE01260C14
:100C4000444C4F4F5020CE09F20B520AEE013E0C9D
:100C5000452B4C4F4F50CE09B40B520AEE014E0CAF
:100C600046554E4C4F4F5020D603D6035C045C04CF
:100C7000EE015E0C0243522004060D004202EE011A
:100C8000720C024C462004060A004202EE01800C5F
:100C900002424C20040620004202EE018E0C045059
:100CA0004143452004060B004202EE019C0C044225
:100CB000454C4C20040607004202EE01AC0C0553E3
:100CC00050414345040620004202EE01BC0C06538D
:100CD000504143455320B204E405E40CC40CB00772
:100CE000C005D60CEE01CC0C05434F554E546C0498
:100CF0008E03BA03A407D603EE01E60C0454595040
:100D000045206C04E4051A0DB007BA036C048E0389
:100D10004202A407D603C005020D5C045C04EE0188
:100D2000FA0C03554D2D76055603EE01200D0255A4
:100D30002D2066088E033E06F0046C0466087603D8
:100D4000EE012C0D02552B2066088E033E06DC04B6
:100D50006C0466087603EE01420D025540206608D9
:100D60008E03EE01580D0255212066087603EE0130
:100D7000640D023E552066088E037603EE01700D69
:100D800002553E2066088E038E03EE017E0D05435C
:100D90004F4C4430040600000406B40176030406F8
:100DA00000000406B6017603040600000406B8013C
:100DB0007603040600000406BA01760304060E2238
:100DC0000406BC01760304061C220406BE01760359
:100DD000040610000406C20176030406EC010406B2
:100DE000C40176030406FF080406C0017603EE0181
:100DF0008C0D0645454C4F4144207A066C04CC06C8
:100E00000406B40176039E06DC046C04CC060406DA
:100E1000B60176039E06DC046C04CC060406B80119
:100E200076039E06DC046C04CC060406BA01760345
:100E30009E06DC046C04CC060406BC0176039E0608
:100E4000DC046C04CC060406BE0176039E06DC04BA
:100E50006C04CC060406C20176039E06DC046C0416
:100E6000CC060406C0017603EE01F00D064545539D
:100E7000415645207A066C040406B4018E037E04B4
:100E8000B2069E06DC046C040406B6018E037E04E2
:100E9000B2069E06DC046C040406B8018E037E04D0
:100EA000B2069E06DC046C040406BA018E037E04BE
:100EB000B2069E06DC046C040406BC018E037E04AC
:100EC000B2069E06DC046C040406BE018E037E049A
:100ED000B2069E06DC046C040406C2018E037E0486
:100EE000B2069E06DC046C040406C0018E037E0478
:100EF000B206EE016A0E04434F4C4420FA0D04067C
:100F0000B6011603E4050C0F940D740E0406B4012B
:100F10001204040690012404040600001C08760351
:100F2000040610002A0876030406480FD6030406B8
:100F3000B6016C048E038C06DC047E047603EE019D
:100F4000F40E045741524D20B8018E03F40992214A
:100F5000EE01400F03425945740EBA018E03F409A5
:100F60002600EE01520F013404060400EE01640F66
:100F700002342B2004060400DC04EE016E0F023460
:100F80002D2004060400F004EE017C0F0232212023
:100F90007E04960476038A077603EE018A0F0232F6
:100FA00040206C048A078E037E048E03EE019C0FA2
:100FB00003323E527E04D603D603EE01AE0F033257
:100FC000523ED603D6037E04EE01BC0F03325240DC
:100FD000D603D60396049604BA03BA037E04EE0140
:100FE000CA0F053244524F505C045C04EE01E00F1E
:100FF00004324455502096049604EE01EE0F05325B
:10100000535741500A07BA030A07BA03EE01FC0F0F
:1010100002442B20BA037E04BA035603D603D60338
:10102000DC04DC04EE010E1002442D20BA037E0421
:10103000BA03260DD603D603F004F004EE01261001
:1010400007444E45474154456205BA0362058C0684
:101050005603D603DC04EE013E1004444142532003
:101060006C046E07E4056A104810EE01581004483D
:10107000415348200000662465E075E1F991E9914B
:10108000981779F07190670D761D660F771F660FC0
:10109000771F660F771F660F771F660F771F019701
:1010A000EFCFCB010C9408016C100652414E444F17
:1010B0004D2000004091C6015091C6014527429540
:1010C000540FCA0108C0A8100452414E4420000029
:1010D000AC01999189914093C6015093C7010C943A
:1010E0000801C610034142536C046E07E405F21078
:1010F0007605EE01E210034D4158F60FC404E405F5
:1011000004117E045C04EE01F410034D494E7E048C
:10111000FA10EE0108110657495448494E2096042A
:10112000F004BA03F004D6033A03EE011411065595
:101130004D504153532000006C045603BA03BA03C8
:101140006C045603D603DC04EE012C1106554D2F1A
:101150004D4F4420000096049604320DE40598118A
:10116000760504060F000A0BBA0336116C04D60389
:10117000F2037E04BA035603D6033605E4058C1148
:10118000BA035C04A407D603C0058E115C04D60321
:10119000300B5C047E04EE015C045C045C04EC0235
:1011A0006C04EE014A11054D2F4D4F4400006C04B4
:1011B0006E076C04BA03E405C2117605BA03481041
:1011C000D603BA036C046E07E405D011F203DC0405
:1011D000D6035411D603E405E0117E0476057E049F
:1011E000EE01A411042F4D4F4420000096046E0719
:1011F0007E04AC11EE01E211034D4F440000EA11F0
:101200005C04EE01F611012F0000EA117E045C047B
:10121000EE01041203554D2A00007A067E040406EE
:101220000F000A0B3611D603E4053612BA039604F2
:101230005603D603DC04300B0A075C04EE011212DD
:10124000012A000018125C04EE013E12024D2A2011
:101250000000960496044A056E07BA03E8107E045F
:10126000E8101812D603E4056C124810EE014A1279
:10127000052A2F4D4F440000BA035012BA03AC1197
:10128000EE016E12022A2F20000076127E045C040A
:10129000EE0182120C286C6F61645F666C6173688A
:1012A00029200000F991E991CE93DE93EC01E695B7
:1012B000FF1F4091800055915D934A95E1F7DD91C4
:1012C000CD91999189910C94080192120C28736127
:1012D00076655F666C61736829200000FC01799176
:1012E0006991CE93DE93EB01EE93FE9383E017D0EA
:1012F000EE27FF2770E80D901D9081E010D0329608
:101300007A957A95C1F7FD91ED9185E008D081E15C
:1013100006D0DD91CD91999189910C940801F894B2
:101320002FB60E94E93F2FBE789407B600FCFDCF90
:101330000895CA1205444947495404063000F00490
:101340006C047A06C404E40574136C0404060900F2
:10135000C404E4057A136C0404061100C404E40513
:10136000741304060700F0046C042A08F004C40493
:10137000E4057A135C040203EE015C04EC02EE0166
:101380003213023C232082080406DC017603EE01BE
:10139000801304484F4C4420DC018E03F6076C0494
:1013A000DC0176035206EE01901301237A062A0827
:1013B0008E035411BA032A088E0354117E043A1383
:1013C0009813D603EE01A81302235320AC13F60F93
:1013D00036051603E405CC13EE01C6130453494742
:1013E0004E206E07E405EE13E81FF0049813EE019B
:1013F000DA1302233E20E80FDC018E0382089604F4
:10140000F004EE01F0130428552E29207A068613E5
:10141000CC13F613EE01041402552E200C14020D09
:10142000C40CEE01161403552E52BA030C14D60345
:101430009604F004D60CEE01241403282E296C0423
:10144000E81000008613CC130A07E213F613EE012E
:101450003814012E3E14020DC40CEE015014013F4D
:101460008E035414EE015C14022E5220BA033E1473
:10147000D6039604F004D60C020DEE01661405287E
:1014800055442E298613CC13F613EE017C14035514
:10149000442E8414020DC40CEE018C140455442E09
:1014A0005220BA038414D6039604F004D60C020D1D
:1014B000EE019A140428442E292026076010861372
:1014C000CC130A07E213F613EE01B21402442E20E5
:1014D000BA14020DC40CEE01CA1403442E52BA030E
:1014E000BA140A079604D60C020DEE01D814062889
:1014F000736B6970292000009927F991E991608147
:10150000961721F0861721F03196F9CFEE27FF27A5
:10151000CF010C940801EC1406287363616E292036
:1015200000009927F991E9916081961721F08617BB
:1015300021F43196F9CFEE27FF27CF010C94080153
:101540001615062873616D65292000009927799189
:101550006991F991E991CE93DE93EB01882B39F0F3
:101560008A95419159914517C9F3882702C08FEF99
:101570009FEF0C94080140150628636F70792920AD
:101580000000992779916991F991E991CE93DE93C1
:10159000EB01881721F0619169938A95FACFDD916B
:1015A000CD91CF010C940801761508287265666903
:1015B0006C6C29200000F991E9918A958A9540E2A6
:1015C0004193992755278917F1F05F9BFECF4CB1C6
:1015D0004038DCF75D9BFECF4CB94E3164F44D30A2
:1015E00091F04A3081F0483029F4991771F39A95B7
:1015F0003197EBCF40E2403211F4451731F3939528
:101600004193542FE0CF40E24193892F99270C94C6
:101610000801A8150628776F726429200000F99147
:10162000E99199270AC0121607287061727365291B
:101630000000F991E991992707C060819617B1F0F0
:10164000861711F43196F9CFAF016081961771F0CA
:10165000861711F03196F9CFE41BF50B4A935A9394
:10166000CF0102C0882799270C9408012616072865
:1016700064696769742900008053803064F08930A0
:101680003CF0813144F0875090912A0898171CF45F
:101690009FEF8FEF02C0992788270C9408016C16E2
:1016A00008286E756D6265722920000099279817C9
:1016B0001CF08A939A9350C0F991E991BC01882754
:1016C000992770902A08671709F449C04191772338
:1016D000C9F4443219F440E1742EF5CF433219F4C1
:1016E0004AE0742EF0CF453219F442E0742EEBCF6D
:1016F0004D3219F451E07A95E6CF4B3219F450E0AF
:101700007A95E1CF403059F1403249F141360CF041
:1017100040524053403004F14A300CF047504715D6
:10172000DCF4840F961D0C014715000C111C42308F
:1017300081F0C001000C111C000C111C4A3019F47E
:10174000080E191E06C0000C111C403111F008F4DF
:1017500003C0C0017395B0CF442755270AC050304D
:1017600021F0809590950196B8F38A939A934FEF64
:101770005FEFCA010C9408019E16062866696E6424
:1017800029200000FC019991899179916991CE936A
:10179000DE936E937E93EB01982FCE93DE93EE93C0
:1017A000FE93FD91ED91EE0FFF1F45915591F79539
:1017B000E795451751F14E935E93EE0FFF1F65912C
:1017C0007591F795E795562F6F70681751F7499106
:1017D000471739F7892F8A9579F0EE0FFF1F65912A
:1017E0007591F795E79549914617D9F68A9521F0B5
:1017F00049914717B1F6EFCF507421F48827992704
:10180000839505C08FEF9FEF02C0882788275D91E1
:101810004D915D914D915D914D91803009F0AF01F9
:10182000DD91CD914A935A930C9408017817044E98
:10183000554C4C200000636F796F746500EE010019
:101840002C18063F4552524F52207E04E40556188C
:101850005C04C0055E182C215414780C9221EE0112
:101860004018053F434F4D501C088E0316030406D5
:101870000B004A18EE016018053F455845431C0807
:101880008E03B007160304060C004A18EE01761802
:10189000043F43535020480436088E03F0040406E6
:1018A0000E004A18EE018E18063F535441434B2058
:1018B000480490015607040601004A1848049001A4
:1018C000F00404062400F004040607004A18EE01A0
:1018D000A618053F50414952F00404060D004A186D
:1018E000EE01D01864484F4F4B206818F00A0406E8
:1018F0000100EE01E218644241434B2068180406DF
:101900000100D818FE0AEE01F41862494620681852
:10191000700A04060200EE01081964454C53452084
:10192000681804060200D81804060200A60AEE0190
:10193000181965454E444946681804060200D8182F
:101940009A0AEE013019645448454E20681804067E
:101950000200D8189A0AEE014419654148454144ED
:1019600068187E0A04060200EE01581963414654C5
:10197000681804060200D818DE0A04060200EE0108
:101980006A1965424547494E6818360A040603003D
:10199000EE01801965414741494E6818040603006D
:1019A000D818420AEE01921965554E54494C6818F0
:1019B00004060300D818520AEE01A61965574849D3
:1019C0004C45681804060300D818B60A040604003B
:1019D000EE01BA1966524550454154206818040674
:1019E0000400D818C60AEE01D21963464F5268188F
:1019F0000A0B04060500EE01E819644E4558542010
:101A0000681804060500D818300BEE01F819644375
:101A1000415345206818400B04060600EE010C1ADD
:101A200067454E4443415345681804060600D818DC
:101A30008E0BEE011E1A624F46206818040606003F
:101A40004A0BD8180700EE01341A65454E444F463C
:101A5000681804060700D818660B04060600EE0195
:101A6000481A62444F206818FE0B04060800EE0175
:101A7000601A644C4F4F5020681804060800D818AC
:101A8000460CEE01701A652B4C4F4F506818040637
:101A90000800D818560CEE01841A654C454156458D
:101AA000681804060800D8182E0C04060800EE0179
:101AB000981A66554E4C4F4F50206818040608007F
:101AC000D818680C04060800EE01B01A0556414CFF
:101AD00055450E205C04AE09EE01CA1A42544F204F
:101AE000D41F8A077603EE01DA1A054445464552AB
:101AF0000E2004060E220406C00566096609EE01E2
:101B0000E81A42495320D41F8A077E047603EE0167
:101B1000001B0653534D4F564520B204E405AC1C40
:101B20006C04BA036C049604DC04BA03DC04D60328
:101B3000D603B204E405AC1CB007BA0396048E03C6
:101B40006C04040627004007E4059C1C6C04040692
:101B500061004007E4050C005C0404060700C005B2
:101B60009C1C6C04040662004007E4050E005C0443
:101B700004060800C0059C1C6C04040665004007B0
:101B8000E40510005C0404061B00C0059C1C6C04EA
:101B9000040666004007E40512005C0404060C001D
:101BA000C0059C1C6C0404066C004007E40514008E
:101BB0005C0404060A00C0059C1C6C0404066E004C
:101BC0004007E40516005C0404060A00C0059C1CDE
:101BD0006C04040671004007E40518005C04040668
:101BE0002200C0059C1C6C04040672004007E4053A
:101BF0001A005C0404060D00C0059C1C6C0404065D
:101C000074004007E4051C005C0404060900C005DC
:101C10009C1C6C04040676004007E4051E005C046E
:101C200004060B00C0059C1C6C0404067A004007E7
:101C3000E40520005C0404060000C0059C1C6C0444
:101C4000040622004007E40522005C04040622008A
:101C5000C0059C1C6C0404065C004007E4052400DD
:101C60005C0404065C00C0059C1C6C04040678003F
:101C70004007E40526005C0404060A00C0059C1C1D
:101C80006C0404066D004007E40528005C040406AB
:101C90000A00C0059C1C5C04040620009604760320
:101CA000B0077E04B0077E04C005321B5C045C04F0
:101CB000EE01101B044D4F564520B204E405F01C04
:101CC0006C04BA036C049604DC04BA03DC04D60387
:101CD000D603B204E405F01CB007BA0396048E03E1
:101CE00096047603B0077E04B0077E04C005D21CBC
:101CF0005C045C04EE01B21C05434D4F5645B20432
:101D0000E4050E1D98058C06DC04BA1CEE015C048B
:101D10005C04EE01F61C0446494C4C207E04B204DF
:101D2000E405401DBA037E04D603B204E405401D59
:101D3000B007BA03960496045206A407C005281DEE
:101D40005C045C04EE01141D015D8C061C08760326
:101D5000EE01461D415B7A061C087603EE01521D1A
:101D600006544F47474C452096048E034A057E048F
:101D70007603EE015E1D043E4E4641203E06DC0425
:101D8000EE01741D043E434641207C1D6C048E030D
:101D90000F002205DC043C09EE01821D064849447F
:101DA00044454E20F2087C1D1000681DEE019A1D6E
:101DB00009494D4D454449415445F2087C1D4000B8
:101DC000681DEE01AE1D0C434F4D50494C455F4F11
:101DD0004E4C5920F2087C1D2000681DEE01C41DE8
:101DE0000748414E444C45520406D401EE01DE1D25
:101DF0000543415443484804BA03E81D8E03BA031F
:101E00003604E81D7603F409D603E81D7603D603ED
:101E10005C047A06EE01EE1D055448524F57B20499
:101E2000E4053C1EE81D8E031204D603E81D76036C
:101E3000D6037E04BA0324045C04D603EE01161E06
:101E40000541424F52540406FFFF1E1EEE013E1E86
:101E500006414343455054200E22EE014E1E054FCD
:101E6000564552540E22EE015C1E413A0E204A1D88
:101E7000EE01681E013BE409561D641EEE01721E50
:101E800006534F55524345200406000104064800FE
:101E900096049604DC0404067A067E0476038C0617
:101EA000F004EE017E1E07534F555243452B881E0A
:101EB0005C04CC01DC04EE01A41E06524546494CEC
:101EC0004C20881EB4157A06CC017603EE01B81EAC
:101ED000055041525345AE1E7E043016B204E4054F
:101EE000EA1E6C04CC01D407EE01C21EC005D61E4A
:101EF000CE1E415C04064800CC017603EE01F01EC4
:101F0000412804062900D61E5C045C04EE01FE1E76
:101F1000022E282004062900D61EEE010E1F0353B0
:101F20005C22D6036C04EE0C020D6C048E038C064E
:101F3000DC04DC043E06DC042C06BA03EE011C1FA4
:101F400002532220D6036C04EE0C020D6C048E03A7
:101F50008C06DC04DC043E06DC042C06BA03EE012D
:101F60003E1F422E222004062200D61E1C088E038D
:101F7000E4058C1FCE09441F6C0458090E09960411
:101F80001C093C097E04FE1CC0058E1F020DEE01DB
:101F9000601F0A50415253452D4E414D4520AE1E03
:101FA0007E041C16B204E405B21F6C04CC01D407F5
:101FB000EE01C21EC0059E1F901F0946494E442DCA
:101FC0004E414D45F2088E038217EE01B81F0446BC
:101FD000494E44209E1FC41FE405461E5C04EE01CA
:101FE000CC1F0443484152209E1F5C048E03EE0127
:101FF000E01F073A4E4F4E414D457A067A060E20B5
:102000004A1DEE01F01F06435245415445209E1FD4
:102010000406EC016C04F2088E037E0476038A0742
:10202000960496047603A4077E046C04BA03801514
:10203000D6036C048C0622051603E4054A206C04C2
:10204000940C7E0476038C06DC04EE010420044428
:102050004F4553200406C00566090E096609EE01C6
:102060004C2045444F45533E0406C00566090E0901
:102070006609EE01602008434F4E5354414E5420F0
:102080000E2042088E036C04BA03B206D6036C0419
:102090003E06DC044208760366096820EE017420DF
:1020A000085641524941424C45200E2066088E0395
:1020B0006C04BA037603D6036C043E06F00466088B
:1020C000760366096820EE019E200127C41F6C0478
:1020D0001603E405D8207E045C04EE01C8204850B5
:1020E0004F5354504F4E4520CC206609EE01DC2062
:1020F00047434F4D50494C458A098E036609EE010E
:10210000EE20054E554D424E96049604AA16E4055F
:102110002021BA035C045C04D603EC02C005222132
:102120000203EE010021054E4F4E454E780C020D84
:102130000406720104060400020DEE012421044588
:1021400056414C209E1FC41FE4056821B0071603AA
:10215000E40562211C088E03E40562216609C005BE
:102160004421F409C00544210821E40582211C080A
:102170008E03E40544210406040666096609C005C9
:1021800044212C21C0054421EE013C210451554934
:102190005420561DB4011204C21E4421F61D6C04C5
:1021A000040600004007E405C8211C088E0316033E
:1021B000E405FE2104066D0104060400020DC005BD
:1021C000FE21780CC0059A216C040406FFFF40072D
:1021D000E405E2210406910104060800020DC00591
:1021E000FE216C040406FEFF4007E405FE21040600
:1021F000840104060C00020D5414C005FE21780C65
:10220000C0059A21EE018A2105554E444546040633
:0C221000770104060C00020D780CEE01B2
:00000001FF
